:020000040800F2
:100000009015002065650008996200089B62000851
:100010009D6200089F620008A162000800000000C5
:100020000000000000000000000000005361000814
:10003000A3620008000000000D610008A56200082E
:10004000C1650008C5650008C9650008CD650008E0
:10005000D1650008D5650008D9650008DD65000890
:10006000E1650008E5650008E9650008B16200087F
:10007000ED650008F1650008BB620008C562000874
:10008000CF620008D9620008E3620008F565000845
:10009000F9650008FD6500080166000805660008AE
:1000A000096600080D66000811660008156600085C
:1000B000ED620008F7620008196600080163000895
:1000C0000B630008156300081F6300081D66000825
:1000D00021660008296300082566000829660008D3
:1000E0002D660008316600083566000870B504000A
:1000F00000250026002C01D10120B5E094F83D0038
:10010000002805D1002084F83C00200001F068FBA5
:10011000242084F83D0020680068400840002168E1
:10012000086001F0F6FF0100DFF8400162688242DA
:1001300008D2DFF83C21914201D2012200E00022E6
:10014000D2B207E0DFF82C21914201D2012200E077
:100150000022D2B2012A01D1012085E0DFF8182166
:10016000B1FBF2F223685A606368834201D2531CE8
:1001700008E04FF4967303FB02F34FF47A75B3FB78
:10018000F5F35B1C25682B626368834214D2481E1A
:1001900063685B00B0FBF3F0401C0005000D042811
:1001A00001D204203EE0481E63685B00B0FBF3F020
:1001B000401C0005000D35E0A068002809D14B1E49
:1001C000656803204543B3FBF5F0401C0005000DB6
:1001D0000AE04B1E656819204543B3FBF5F0401C4F
:1001E0000005000D50F48040000501D1012019E008
:1001F000A068002809D14B1E656803204543B3FB66
:10020000F5F0401C0005000D0AE04B1E6568192042
:100210004543B3FBF5F0401C0005000D50F4804051
:1002200050F400402368D861E369206A03432068E2
:1002300003602369E0680343206883606369A06901
:1002400003432068C3602068006850F00100236801
:10025000186000202064202084F83D0000202063E6
:10026000002084F83E00002070BD0000A18601003F
:1002700080841E0000093D0040420F002DE9F24F2E
:1002800082B0050016001F00DDF830800D9CDDF8FF
:1002900038905FF0000B01F087FF824695F83D0033
:1002A000202840F08581CDF800A019230122DFF835
:1002B0000C13280001F0EDF8002801D0022078E1AD
:1002C00095F93C00012801D1022072E1012085F856
:1002D0003C0028680068C00705D42868006850F012
:1002E0000100296808602868006830F40060296807
:1002F0000860222085F83D00402085F83E0000205F
:100300002864C5F824806C85DFF8AC02E862688D4B
:100310002885CDF804A0CDF800903B009BB23200B8
:1003200092B2BDF80810280000F0BEFF00280CD0E3
:10033000286C042804D1002085F83C00012038E115
:10034000002085F83C00032033E1288D00280FD1E0
:10035000002000902868406900902868806900901B
:1003600000982868006850F400702968086044E02C
:10037000288D012817D12868006830F4806029682A
:10038000086072B6002000902868406900902868D4
:100390008069009000982868006850F4007029680F
:1003A000086062B629E0288D022817D12868006805
:1003B00050F400602968086072B600200090286838
:1003C000406900902868806900900098286800685B
:1003D00030F480602968086062B60EE02868006822
:1003E00050F4806029680860002000902868406907
:1003F00000902868806900900098288D002800F0FF
:10040000CC80288D042880F09C80288D01281AD16A
:1004100052464946280001F0FCF8002806D0286C16
:10042000202801D10320C4E00120C2E0686A411CF9
:100430006962296809690170288D401E2885688DC8
:10044000401E6885D9E7288D02282DD1CDF800A05F
:100450004B460022DFF8A415280001F01AF8002806
:1004600001D00320A5E072B62868006850F400703F
:1004700029680860686A411C696229680969017015
:10048000288D401E2885688D401E688562B6686A82
:10049000411C6962296809690170288D401E288500
:1004A000688D401E6885A8E7DFF850B5CDF800A03C
:1004B0004B4600225946280000F0EBFF002801D0EF
:1004C000032076E02868006830F4806029680860BE
:1004D00072B6686A411C6962296809690170288DD1
:1004E000401E2885688D401E6885CDF800A04B46CB
:1004F00000225946280000F0CCFF002801D003203C
:1005000057E02868006850F4007029680860686A3D
:10051000411C6962296809690170288D401E28857F
:10052000688D401E688562B6686A411C69622968E8
:1005300009690170288D401E2885688D401E6885D8
:100540005BE752464946280001F063F8002806D0D0
:10055000286C202801D103202BE0012029E0686AC3
:10056000411C6962296809690170288D401E28852F
:10057000688D401E68852868406940077FF53DAF5B
:10058000686A411C6962296809690170288D401EEA
:100590002885688D401E68852FE7202085F83D005E
:1005A000002085F83E00002085F83C00002000E097
:1005B0000220BDE8FE8F00000000FFFF02001000D7
:1005C0002DE9F041040020688569206846692068AB
:1005D000476894F93E80B8F1100F02D0B8F1400F8F
:1005E0004FD116F0011F05D0B80503D5200000F04B
:1005F000F2FA12E0DFF83C0B064205D0B80503D54D
:10060000200000F02FFB08E0DFF82C0B064204D09E
:10061000B80502D5200000F02CFBDFF8200B0542C6
:1006200017D0DFF8740C064209D0780507D5DFF83B
:10063000CC03064203D1200000F0E7F866E0DFF8C3
:10064000BC03064262D0B80560D5200000F084F9F2
:100650005CE0DFF8480C064209D0780507D5DFF8E2
:100660009C03064203D1200000F0CAF94EE0DFF8F7
:100670008C0306424AD0B80548D5200000F02CFA79
:1006800044E0DFF8B40A064205D0B80503D52000DF
:1006900000F064FC3AE0DFF8080C064205D0B8052B
:1006A00003D5200000F074FC30E0DFF8900A05422A
:1006B00017D0DFF8E40B064209D0780507D5DFF83C
:1006C0003C03064203D1200000F0E0FB1EE0DFF80F
:1006D0002C0306421AD0B80518D5200000F0FBFB09
:1006E00014E0DFF8B80B064208D0780506D5C348F9
:1006F000064203D1200000F0FDFB07E0BF480642A0
:1007000004D0B80502D5200000F019FCBDE8F08146
:100710002DE9F04705000026002400275FF00008BF
:100720002868D0F814902868D0F804A0DFF8740B7B
:1007300019EA000F10D05FEACA500DD5286C50F0AE
:10074000010028647FF48070296848612868006887
:1007500050F400402968086019F4813F0AD05FEA2C
:10076000CA5007D5286C50F0020028647FF400704E
:100770002968486119F4823F2FD05FEACA502CD50E
:1007800095F93E000600688D040095F83D000700CD
:10079000286B8046202E0ED1002C0CD1212F06D0A4
:1007A000292F04D0282F06D1B8F1210F03D128001A
:1007B00000F06EFC11E0286C50F00400286495F9FC
:1007C0003E00102805D12868006850F400702968A0
:1007D00008607FF480602968486119F4843F0AD07A
:1007E0005FEACA5007D5286C50F0080028647FF4EF
:1007F000006029684861286C002802D0280000F0B9
:100800009FFCBDE8F087006C7047F8B5040094F8D1
:100810003D5094F93E60E76A208D00283ED1212D9D
:100820003CD1042F17D0082F15D0DFF85C06874283
:1008300011D02068406830F4E060216848601120E1
:100840002063002084F83E00202084F83D00200032
:1008500001F0F2FC7EE02068406830F4E06021683E
:1008600048602068006850F400702168086000202B
:100870002063202084F83D0094F93E00402806D1F2
:10088000002084F83E00200001F0D9FC62E0002046
:1008900084F83E00200001F0CFFC5BE0212D03D066
:1008A000402E57D1222D55D1608D002806D12068C9
:1008B000406830F48060216848604BE094F93E0065
:1008C00040283ED1206D002814D1E06C012807D1CA
:1008D000A06CC0B221680861206D801C206539E0E1
:1008E000A06C80B2000AC0B221680861206D401C73
:1008F00020652FE0206D012807D1A06CC0B22168CF
:100900000861206D401C206524E0206D022821D163
:1009100094F83D00222806D12068006850F48070C9
:100920002168086016E094F83D00212812D1606A21
:10093000411C6162007821680861608D401E6085FD
:1009400008E0606A411C6162007821680861608D7E
:10095000401E60850020F2BD38B50400E56A94F8B9
:100960003D00212848D1608D002809D0606A411CD3
:100970006162007821680861608D401E60853BE0FF
:10098000042D17D0082D15D0DFF8FC04854211D0B6
:100990002068406830F4E0602168486011202063DE
:1009A000002084F83E00202084F83D00200001F063
:1009B00043FC21E02068406830F4E0602168486032
:1009C0002068006850F400702168086000202063EF
:1009D000202084F83D0094F93E00402806D10020F4
:1009E00084F83E00200001F02AFC05E0002084F895
:1009F0003E00200001F020FC002032BD0400010078
:100A000038B5040094F83D00222863D10020658D9C
:100A1000042D09D3606A411C616221680969017073
:100A2000608D401E608555E0022D01D0032D1CD144
:100A3000E06A02280CD02068006830F480602168E9
:100A400008602068006850F400602168086005E0D4
:100A50002068006850F48060216808602068406861
:100A600030F480602168486034E0E06A022806D0F3
:100A70002068006830F480602168086005E0206824
:100A8000006850F48060216808602068406830F495
:100A9000E06021684860606A411C61622168096900
:100AA0000170608D401E6085202084F83D0000208C
:100AB000206394F93E00402806D1002084F83E00CF
:100AC000200001F0BDFB05E0002084F83E0020007E
:100AD00001F0B3FB002032BD38B50400E56A608D3B
:100AE000032817D1042D05D0082D03D0DFF8980373
:100AF000854205D12068006830F480602168086074
:100B0000606A411C6162216809690170608D401E44
:100B100060855EE0608D022852D1042D1BD0082D27
:100B200019D0DFF86403854215D0022D06D0206865
:100B3000006830F480602168086005E02068006883
:100B400050F48060216808602068406830F440708C
:100B5000216848600BE02068406830F440702168EC
:100B600048602068006850F4007021680860606A7E
:100B7000411C6162216809690170608D401E6085B9
:100B8000606A411C6162216809690170608D401EC4
:100B90006085202084F83D000020206394F93E0009
:100BA000402806D1002084F83E00200001F048FBD8
:100BB0000FE0002084F83E00200001F03EFB08E03A
:100BC000606A411C6162216809690170608D401E84
:100BD0006085002032BD010091F93E0040280FD110
:100BE000086D002805D1486C10F0FE000A681061FD
:100BF00036E0486C50F00100C0B20A6810612FE086
:100C00000869B0F5804F10D191F83D00212805D139
:100C1000486C10F0FE000A68106121E0486C50F04A
:100C20000100C0B20A6810611AE0086D00280AD1FC
:100C3000486C10F4407080B2C00950F0F000C0B2AF
:100C40000A6810610CE0086D012809D1486C10F4A5
:100C5000407080B2C00950F0F100C0B20A68106163
:100C6000002070470100486CC0B20A681061002083
:100C7000704738B4010091F93E20CB6A0C6B91F8B3
:100C80003D00222840F0F480086D00280BD1402A56
:100C900009D10020009008684069009008688069C8
:100CA00000900098EDE0086D002816D10869B0F5B5
:100CB000404F12D1002000900868406900900868F9
:100CC0008069009000980868006850F480700D6892
:100CD0002860086D401C0865D3E0488D00280FD1BE
:100CE00000200090086840690090086880690090C2
:100CF00000980868006850F400700D682860B4E03F
:100D0000488D012862D16048834229D10868006873
:100D100030F480600D6828600868406800050FD5D1
:100D20000868006830F480600D682860002000903A
:100D3000086840690090086880690090009894E015
:100D40000020009008684069009008688069009061
:100D500000980868006850F400700D68286084E00E
:100D6000042B1DD0082B1BD0122C19D0C86A0228C6
:100D700006D00868006830F480600D68286005E0DF
:100D80000868006850F480600D68286000200090BA
:100D9000086840690090086880690090009864E0E5
:100DA0000868006830F480600D68286000200090BA
:100DB0000868406900900868806900900098086899
:100DC000006850F400700D6828604EE0488D0228DD
:100DD00032D1C86A022815D00868006850F4006053
:100DE0000D6828600020009008684069009008683D
:100DF0008069009000980868006830F480600D6891
:100E000028600EE00868006850F480600D68286073
:100E10000020009008684069009008688069009090
:100E200000980868406800051FD50868406850F4BD
:100E300080500D68686018E00868006850F48060B1
:100E40000D68286008684068000505D50868406896
:100E500050F480500D686860002000900868406978
:100E6000009008688069009000980020086508E0FC
:100E70000020009008684069009008688069009030
:100E80000098002032BC70470000FFFF38B5040016
:100E900094F83D50608D00281BD0606A411C61624F
:100EA000007821680861608D401E6085608D002893
:100EB0000FD1292D0DD12068406830F48060216861
:100EC000486021202063282084F83D00200001F0A4
:100ED000B8F9002032BD0100488D002808D0486ACA
:100EE000421C4A6200780A681061488D401E48859D
:100EF0000020704738B5040094F83D50608D0028FC
:100F00001BD0606A411C6162216809690170608DB3
:100F1000401E6085608D00280FD12A2D0DD12068DC
:100F2000406830F4806021684860222020632820D7
:100F300084F83D00200001F085F9002032BD010059
:100F4000488D002808D0486A421C4A620A68126923
:100F50000270488D401E48850020704770B504001F
:100F60000025002021688969490701D401210D006D
:100F700021688969090601D4E66800E0A6693200A3
:100F800092B22900C9B2200001F05DF9002070BDC5
:100F900038B5040094F83D502068406830F4E060B3
:100FA0002168486000200090206840690090206817
:100FB000006850F00100216808600098206800680F
:100FC00030F480602168086020684068000510D512
:100FD00094F83D00222803D094F83D002A2804D13B
:100FE000A06B00684068608503E0606B0068406843
:100FF0006085608D00281DD020684069400708D5B5
:10100000606A411C6162216809690170608D401E3F
:10101000608520684069400608D5606A411C6162AD
:10102000216809690170608D401E6085206C50F058
:1010300004002064206C002803D0200000F080F819
:1010400024E0282D03D02A2D01D0292D0ED1DFF840
:10105000CC03E06200202063202084F83D000020C3
:1010600084F83E00200001F0EFF80FE0206B22280A
:1010700001D0222D0AD100202063202084F83D00D9
:10108000002084F83E00200001F0DCF8002032BD92
:1010900070B5040094F83D50E66A042E01D0082E85
:1010A00020D1282D1ED1DFF87403E062206840684B
:1010B00030F4E060216848607FF480602168486116
:1010C0002068006830F48060216808600020206398
:1010D000202084F83D00002084F83E00200001F02C
:1010E000B3F824E0212D1ED1DFF83003E062212087
:1010F0002063202084F83D00002084F83E00206812
:10110000406830F4E060216848607FF480602168C6
:1011100048612068006830F4806021680860200021
:1011200001F08FF803E07FF48060216848610020BF
:1011300070BD000008000100020001000400100062
:1011400038B5040094F83D50292D01D02A2D05D141
:1011500000202063282084F83D000FE094F83D0033
:10116000602806D020684068000502D4202084F85A
:101170003D0000202063002084F83E0020680068C5
:1011800030F400602168086020684068000542D59E
:101190002068406830F4006021684860606B90F916
:1011A0002100012816D00FF27D20616B4863606B2F
:1011B00001F0CDF8002858D02068006840084000B1
:1011C00021680860202084F83D00606B616B496BEA
:1011D00088474AE00FF24D20A16B4863A06B01F0F5
:1011E000B6F8002841D020684069400605D5606AFD
:1011F000411C61622168096901702068006840082B
:10120000400021680860202084F83D00A06BA16B9D
:10121000496B884729E094F83D00602818D12020C8
:1012200084F83D000020206420684069400605D510
:10123000606A411C61622168096901702068006868
:101240004008400021680860200001F0B7F90CE078
:1012500020684069400605D5606A411C61622168CA
:1012600009690170200000F0E9FF94F83D0028288A
:1012700010D1206C40070DD5DFF8A001E0620020FE
:101280002063202084F83D00002084F83E002000E8
:1012900000F0DAFF31BD00008000010040000100D5
:1012A00010000100000101002DE9FC4704000D00C1
:1012B00016001F00DDF82880DDF82C9020680068FB
:1012C00050F48060216808602068006850F48070E5
:1012D00021680860CDF80090434600225FF00111BC
:1012E000200000F0D6F8002801D0032094E015F08B
:1012F000FE0021680861DFF828A14B4642465146AE
:10130000200000F00CF9002806D0206C042801D140
:10131000012081E003207FE00020009020684069E8
:10132000009020688069009000984A46414620005D
:1013300000F046F900280CD0206C042807D1206862
:10134000006850F4007021680860012064E0032008
:1013500062E0380080B2012804D13000C0B22168B8
:1013600008611DE0300080B2000AC0B22168086147
:101370004A464146200000F023F900280CD0206C9A
:10138000042807D12068006850F4007021680860C4
:10139000012041E003203FE03000C0B22168086135
:1013A0004A464146200000F00BF900280CD0206C82
:1013B000042807D12068006850F400702168086094
:1013C000012029E0032027E02068006850F48070A5
:1013D00021680860CDF80090434600225FF00111BB
:1013E000200000F056F8002801D0032014E055F04A
:1013F0000100C0B2216808614B46424651462000B8
:1014000000F08DF8002806D0206C042801D10120BE
:1014100002E0032000E00020BDE8F6870000FFFFA7
:101420000200010038B50400656A2868006830F4DD
:10143000806029680860002068850020696B486327
:101440000020A96B486395F83D00602811D1202049
:1014500085F83D00002085F83E00002028642868BB
:1014600000684008400029680860280001F0A6F8DC
:101470000EE0202085F83D00002085F83E00286819
:1014800000684008400029680860280000F0D6FE87
:1014900031BD2DE9F04105000E0017001C00DDF8FC
:1014A00018803000000CC0B201280AD128684069B9
:1014B000304080B2B1B2884201D101200BE000205F
:1014C00009E028688069304080B2B1B2884201D119
:1014D000012000E00020002801D0012000E00020D1
:1014E000390049B2884217D114F1010FD9D0002C2C
:1014F00005D000F059FEB0EB08008442D1D20020A4
:101500002863202085F83D00002085F83E0000205B
:1015100085F83C00032000E00020BDE8F081F8B52C
:1015200005000E0014001F003000000CC0B201289E
:101530000AD128684069304080B2B1B2884201D1F6
:1015400001200BE0002009E028688069304080B26B
:10155000B1B2884201D1012000E0002000282DD145
:1015600028684069400515D52868006850F4007067
:10157000296808607FF48060296848610420286435
:1015800000202863202085F83D00002085F83C00DD
:10159000012014E014F1010FC6D0002C04D000F09B
:1015A00003FEC01B8442BFD200202863202085F8A0
:1015B0003D00002085F83C00032000E00020F2BD43
:1015C00070B505000C0016002868406900061ED49E
:1015D000280000F04FF8002801D0012018E014F195
:1015E000010FF1D0002C04D000F0DEFD801B8442FE
:1015F000EAD2286C50F020002864002028632020C4
:1016000085F83D00002085F83C00032000E0002024
:1016100070BD70B505000C001600286840694006D2
:1016200026D428684069C0060FD57FF010002968CD
:1016300048610020286400202863202085F83D00B0
:10164000002085F83C00012013E0002C04D000F0BD
:10165000ABFD801B8442E0D2286C50F0200028644F
:10166000202085F83D00002085F83C00032000E0A4
:10167000002070BD01000868406940050FD57FF467
:1016800080600A68506104200864002008632020FC
:1016900081F83D00002081F83C00012000E000209E
:1016A000704730B4002513E050F8042BD30744BF33
:1016B000A9F101039A18091F042942F8045BFAD220
:1016C00013468C0744BF15809B1CC90748BF1D707B
:1016D00050F8041B0029E7D130BC704780B5DFF813
:1016E0001C04016851F001010160006810F0010064
:1016F00000900098DFF80804016851F08051016003
:10170000006810F080500090009800220F217FF0B8
:10171000010000F0C8FF01BD30B585B0040001A88C
:10172000102100F0F3FF2068DFF8D813884255D16C
:10173000DFF8C803016851F400710160016811F419
:10174000007100910099016851F004010160016885
:1017500011F0040100910099016851F00801016045
:10176000006810F0080000900098FF20019003200E
:10177000029001A9DFF8900300F0CCFF0320019054
:101780000320029001A9DFF8840300F0C3FFDFF813
:101790008053DFF880032860002068600020A86084
:1017A0008020E8604FF4807028614FF480606861A9
:1017B0002020A8614FF48050E861280000F046FD29
:1017C000002801D001F064FB25626C620022052133
:1017D000122000F068FF122000F07AFF05B030BD43
:1017E00030B585B004006846102100F08FFF2068F6
:1017F000DFF82413884269D1DFF80003016851F053
:1018000008010160006810F0080004900498C020EE
:10181000009012200190032003906946DFF8EC024B
:1018200000F078FFDFF8D802016851F40011016080
:10183000006810F4001004900498DFF8E052DFF81C
:10184000E0022860102068600020A8608020E86026
:1018500000202861002068610020A8610020E86164
:10186000280000F0F3FC002801D001F011FB6563B3
:101870006C62DFF8B052DFF8B002286000206860C8
:101880000020A8608020E8600020286100206861B6
:101890000020A8610020E861280000F0D7FC0028A3
:1018A00001D001F0F5FAA5636C62002205211F202A
:1018B00000F0F9FE1F2000F00BFF00220521202080
:1018C00000F0F1FE202000F003FF66E02068974959
:1018D000884262D18948016851F0080101600068BE
:1018E00010F00800049004984FF44060009012201B
:1018F0000190032003906946844800F00BFF804864
:10190000016851F480010160006810F480000490C7
:101910000498874D87482860002068600020A860F0
:101920008020E86000202861002068610020A86114
:101930000020E861280000F089FC002801D001F0B7
:10194000A7FAA5636C627C4D7C4828601020686013
:101950000020A8608020E8600020286100206861E5
:101960000020A8610020E861280000F06FFC00283A
:1019700001D001F08DFA65636C62002205212120FF
:1019800000F091FE212000F0A3FE0022052122207C
:1019900000F089FE222000F09BFE05B030BD18B596
:1019A00085B004006846102100F0B0FE2068B0F158
:1019B000804F2FD15248016851F001010160006849
:1019C00010F00100049004984C48016851F008019F
:1019D0000160006810F0080004900498082000904E
:1019E00000200190002002906946484800F092FED5
:1019F0005348016831F4407151F0E06151F4807155
:101A00000160002205211C2000F04DFE1C2000F08A
:101A10005FFE32E020684B4988422ED13848016889
:101A200051F002010160006810F002000490049877
:101A30003248016851F008010160006810F00800A8
:101A40000490049830200090002001900020029023
:101A500069462E4800F05EFE3948016831F4406165
:101A600051F0E06151F400610160002205211D2068
:101A700000F019FE1D2000F02BFE06B010BD30B5A1
:101A800085B004006846102100F040FE20682E4911
:101A9000884231D11948016851F4804101600168E0
:101AA00011F4804104910499016851F0040101602E
:101AB000006810F00400049004984FF40070009047
:101AC00002200190032003900F4D6946280000F08A
:101AD00021FE4FF4806000900020019000200290D1
:101AE0006946280000F016FE00220521252000F09E
:101AF000DAFD252000F0ECFD05B030BD18100240E5
:101B00001C1002400024014000080140000C01406C
:101B10002C0A00200800024000540040700A0020F7
:101B20006C000240B40A00208000024000580040CF
:101B3000F80A0020580002403C0B002044000240FC
:101B40000400014000040040003801402DE9F84342
:101B5000040000252078C0076BD5DFF80C0601686B
:101B600011F00C01042907D0016811F00C010829BB
:101B70000CD10068C00309D5DFF8E80500688003D0
:101B800057D56068002854D10120BDE16068B0F5E8
:101B9000803F06D1DFF8CC05016851F48031016047
:101BA00026E0606800280AD1DFF8B805016831F442
:101BB00080310160016831F48021016018E06068C3
:101BC000B0F5A02F0AD1DFF89C05016851F48021FF
:101BD0000160016851F48031016009E0DFF884059B
:101BE000016831F480310160016831F480210160C5
:101BF000606800280ED000F0D7FA0500DFF8640511
:101C00000068800315D400F0CFFA401B6528F5D397
:101C1000032079E100F0C8FA0500DFF84805006804
:101C2000800306D500F0C0FA401B6528F5D30320D9
:101C30006AE12078800750D5DFF82C05016811F0A3
:101C40000C0F07D0016811F00C01082914D10068AD
:101C5000C00311D4DFF80C050168890704D5216998
:101C6000012901D001204FE1016831F0F8016269DA
:101C700051EAC201016030E0206900281AD0012039
:101C8000DFF8F414086000F08FFA0500DFF8D404E0
:101C90000168890706D400F087FA401B0328F5D3B2
:101CA000032031E1016831F0F801626951EAC201B3
:101CB000016012E00020DFF8C014086000F074FA40
:101CC0000500DFF8A0040068800706D500F06CFA74
:101CD000401B0328F5D3032016E1207800072CD5FC
:101CE000A069002816D00120DFF89014086000F0E9
:101CF0005BFA0500DFF87C040068800706D400F07A
:101D000053FA401B0328F5D30320FDE0012000F027
:101D100016FA12E00020DFF86414086000F044FABC
:101D20000500DFF850040068800706D500F03CFA93
:101D3000401B0328F5D30320E6E02078400740F15C
:101D400088800026DFF838743868C0000AD4386804
:101D500050F080503860386810F080500090009843
:101D600001200600DFF81C84D8F80000C00513D459
:101D7000D8F8000050F48070C8F8000000F014FAA1
:101D80000500D8F80000C00506D400F00DFA401B8D
:101D90006528F6D30320B7E0E068012806D1DFF814
:101DA000E803016851F00101016025E0E0680028C6
:101DB0000AD1DFF8D40301684908490001600168CD
:101DC00031F00401016017E0E06805280AD1DFF86E
:101DD000B803016851F004010160016851F001018C
:101DE000016009E0DFF8A0030168490849000160CB
:101DF000016831F004010160E068002810D000F0B3
:101E0000D3F90500DFF880030068800719D400F0DB
:101E1000CBF9401B41F289318842F3D3032073E0B0
:101E200000F0C2F90500DFF860030068800708D5FC
:101E300000F0BAF9401B41F289318842F3D3032004
:101E400062E0300040B2012803D1386830F08050A1
:101E50003860E069002856D0DFF80C73386810F05D
:101E60000C0008284DD0E069022837D1DFF81C9318
:101E70000020C9F8000000F097F90600DFF8E482BE
:101E8000D8F80000800106D500F08EF9801B0328E9
:101E9000F4D3032038E0206AB0F5803F05D13968DB
:101EA00031F40031A06801433960396831F47411AC
:101EB000206A0143606A014339600120C9F80000CB
:101EC00000F072F90500D8F8000080011BD400F082
:101ED0006BF9401B0328F6D3032015E00020DFF840
:101EE000AC12086000F060F90500DFF878020068C5
:101EF000800108D500F058F9401B0328F5D30320D2
:101F000002E0012000E00020BDE8F2832DE9F0416D
:101F100004000D000026DFF87872386810F0070022
:101F2000A8420BD23868C008C0002843386038681F
:101F300010F00700A84201D00120ADE02078800712
:101F400019D52078400705D5DFF81C02016851F447
:101F5000E06101602078000705D5DFF80C02016818
:101F600051F460510160DFF800120A6832F0F002AB
:101F7000A06802430A602078C00758D5606801282D
:101F800006D1DFF8E0010068800311D4012083E06E
:101F90006068022806D1DFF8CC010068800107D410
:101FA000012079E06F480068800701D4012073E0C8
:101FB000DFF8B481D8F8001089088900606801430F
:101FC000C8F8001000F0F0F80600606801280ED193
:101FD000D8F8000010F00C00042828D000F0E4F835
:101FE000801B41F289318842F2D3032054E06068BB
:101FF00002280ED1D8F8000010F00C00082816D0E6
:1020000000F0D2F8801B41F289318842F2D30320DC
:1020100042E0D8F8000010F00C0F08D000F0C4F82F
:10202000801B41F289318842F3D3032034E03868C1
:1020300010F0070085420BD23868C008C000284362
:102040003860386810F00700A84201D0012023E072
:102050002078400706D544490A6832F4E062E06817
:1020600002430A602078000707D53F48016831F431
:102070006051226951EAC201016000F00FF8454940
:10208000394A1268C2F30312895CC84038490860B3
:102090000F2000F0FFFE0020BDE8F081F0B585B014
:1020A00001A83D49102200F053FF3C480088ADF8DC
:1020B0000000002000210022002300252A4E346861
:1020C00014F00C07042F02D0082F02D01BE0274881
:1020D0001AE001A8C4F38347C05D0300E0030CD5F8
:1020E00068463668C6F34046805D01001F4800FB25
:1020F00003F0B0FBF1F0020003E0294800FB03F01D
:102100000200100000E0194805B0F0BD1848006852
:10211000704780B5FFF7FAFF2249134A1268C2F3ED
:102120000222895CC84002BD80B5FFF7EFFF1D4960
:102130000D4A1268C2F3C222895CC84002BD81B058
:102140000B490968C9084FF47A72B1FBF2F101FB3F
:1021500000F1009100BF00994A1E00920029F9D1B8
:1021600001B07047001002400410024000127A00D3
:102170000800002024100240000042428004424235
:102180001C100240007000402010024060004242DB
:102190000020024034650008146500084A22000847
:1021A00000093D009065000801480068704700BFC5
:1021B0003C0D00202DE9FE4305000E001700984657
:1021C0000A9C4FF47A7002902000C0B280B2019055
:1021D000CDF8008001233A00D2B292B23100C9B2E8
:1021E00089B22800FEF74AF88146484640B20028E6
:1021F00006D02800FEF707FB042801D000F048FEB7
:10220000484640B2BDE8FE837CB504000D001600D0
:102210003000C0B2009023002A00D2B2CE2105487F
:10222000FFF7C8FF40B2002801D1002000E00120E4
:10223000C0B276BD380900207047704770477047BC
:1022400070477047704770477047010210B4010033
:102250000022002901D101202BE00B68DFF80C03DC
:10226000C3181420B3FBF0F080000864DFF800030B
:10227000C863022081F82100086803686FF30D131A
:102280004C6888680443C868044308690443486983
:10229000044388690443C86904432343086803600E
:1022A00000208863012081F82100002081F82000AF
:1022B000002010BC70472DE9F04104000D0016000D
:1022C0001F005FF0000894F92000012801D10220CE
:1022D0003BE0012084F8200094F9210001282DD151
:1022E000022084F821000020A063206800684008D4
:1022F0004000216808603B0032002900200000F007
:1023000047F9E06A002806D02068006850F00E0007
:10231000216808600BE02068006830F00400216844
:1023200008602068006850F00A0021680860206892
:10233000006850F001002168086004E0002084F883
:10234000200002208046404640B2BDE8F08138B50A
:102350000400002594F92100022804D00420A06381
:10236000012005004AE02068006830F00E00216876
:102370000860206800684008400021680860206804
:10238000DFF8F011884201D1012028E02068DFF851
:10239000E811884201D1102021E02068DFF8DC112B
:1023A000884202D14FF4807019E02068DFF8D01124
:1023B000884202D14FF4805011E02068DFF8C41148
:1023C000884202D15FF4803009E02068DFF8B8115C
:1023D000884202D15FF4801001E05FF08070DFF886
:1023E000AC110860012084F82100002084F820004E
:1023F000606B002802D02000616B8847280040B243
:1024000032BD70B50400E06B0568206806680421E1
:10241000206C81400D423ED070073CD5206800689A
:10242000800605D42068006830F004002168086048
:1024300020685049884201D1042023E020684E4999
:10244000884201D140201DE020684C49884202D1D9
:102450004FF4806016E020684949884202D14FF469
:1024600080400FE020684749884202D15FF4802015
:1024700008E020684449884202D15FF4800001E00E
:102480005FF0806041490860E06A00286DD020005C
:10249000E16A884769E00221206C81400D4244D006
:1024A000B00742D520680068800608D4206800681C
:1024B00030F00A0021680860012084F821002068BB
:1024C0002C49884201D1022023E020682A49884211
:1024D00001D120201DE020682849884202D14FF414
:1024E000007016E020682649884202D14FF400505F
:1024F0000FE020682349884202D15FF4003008E0F1
:1025000020682149884202D15FF4001001E05FF0A9
:1025100000701E490860002084F82000A06A00288E
:1025200023D02000A16A88471FE00821206C814049
:102530000D421AD0300718D52068006830F00E0020
:10254000216808600121206C8140E06B416001201E
:10255000A063012084F82100002084F82000206B73
:10256000002802D02000216B884770BDF8FFFDBF16
:1025700000000240080002401C00024030000240FF
:1025800044000240580002406C0002400400024037
:1025900030B40125046CA540C46B656004686360B9
:1025A0004468102C04D10468A2600468E16003E070
:1025B0000468A1600468E26030BC704770470102A3
:1025C00010B410F00703494C22684FF6FF010A408F
:1025D000474951EA03210A43226010BC704743482F
:1025E0000068C0F302207047012210F01F018A40EA
:1025F000404903005BB25B0941F82320704710B4E7
:10260000020052B2002A09D50A013B4B040064B211
:1026100014F00F04234403F8042C04E00A01374BA0
:10262000040064B21A5510BC704770B4030013F074
:102630000704D4F10700052801D3042001E0D4F1F8
:102640000700251D072D01D2002500E0E51E01260B
:1026500016FA00F0401E0140A94016FA05F56D1E5D
:102660002A401143080070BC704710B50400601E7A
:10267000B0F1807F01D301200EE0601E2049086088
:102680000F215FF0FF30FFF7BAFF00201D490860FF
:1026900007201D490860002010BD10B5040020006F
:1026A000FFF78EFF10BD2DE9F04104000D0016006C
:1026B0000027FFF794FF8046320029004046FFF7CD
:1026C000B4FF0100200040B2FFF799FFBDE8F081A0
:1026D00010B50400200040B2FFF786FF10BD10B512
:1026E00004002000FFF7C1FF10BD00000CED00E06A
:1026F0000000FA0500E100E018ED00E000E400E071
:1027000014E000E018E000E010E000E0002200F03B
:1027100063BC00002DE9F84702000B0000250026ED
:10272000002100275FF000085FF0000EBEF1100FDF
:1027300080F00181012010FA0EF005001868284091
:102740000600AE4240F0F4805868002831D00128DD
:1027500020D0022825D003283CD011281DD01228D3
:1027600023D0DFF8FCC1604523D0DFF8F8C1604515
:102770001FD0DFF8F4C160451BD0DFF8F0C1604521
:1027800017D0DFF8ECC1604513D0DFF8E8C1604531
:102790000FD022E0D86807001FE0D868001D0700AE
:1027A0001BE0D8680830070017E0D8680C30070035
:1027B00013E09868002802D10420070009E0986817
:1027C000012803D108200700156102E00820070056
:1027D000556102E000200700FFE7B6F5807F01D2D7
:1027E000140000E0141DB6F5807F02D25FEA8E0867
:1027F00003E0BEF108085FEA88085FF00F09D4F82B
:1028000000C019FA08F03CEA000C17FA08F050EA88
:102810000C0CC4F800C05868C00040F189805648CC
:10282000D0F800C05CF0010CC0F800C0006810F0E7
:10283000010000900098DFF844C1704680085CF801
:1028400020A01EF00300C0B2800019FA00F93AEA95
:10285000090A4B48824202D15FF0000913E049485F
:10286000824202D15FF001090DE04748824202D165
:102870005FF0020907E04548824202D15FF0030998
:1028800001E05FF004091EF00300C0B2800019FAF5
:1028900000F9514659EA0101704680084CF82010B1
:1028A0005868C00307D53A48D0F800C056EA0C0C67
:1028B000C0F800C006E03648D0F800C03CEA060C7C
:1028C000C0F800C05868800307D53248D0F800C06F
:1028D00056EA0C0CC0F800C006E02E48D0F800C044
:1028E0003CEA060CC0F800C05868C00207D52A4868
:1028F000D0F800C056EA0C0CC0F800C006E026482C
:10290000D0F800C03CEA060CC0F800C0586880024D
:1029100007D52248D0F800C056EA0C0CC0F800C019
:1029200006E01E48D0F800C03CEA060CC0F800C023
:102930001EF1010EFAE6BDE8F18713005BB2002B31
:1029400003D00B009BB2036103E00B009BB21B049E
:1029500003617047C3680A0092B25340C360704776
:1029600000001110000012100000211000002210C1
:102970000000311000003210181002400800014021
:1029800000080140000C014000100140001401400B
:102990000004014004040140080401400C0401400B
:1029A00011B581B00C004FF6FF73012201A9DFF8C9
:1029B0009C0400F066FB019816BD80B500F068FE2F
:1029C00000F015F800F008FA00F0F9F900F054F8FA
:1029D00000F0EEF800F009F900F023F900F077F9C3
:1029E00000F0D3F900F06DFE00F046FFFEE700B501
:1029F00093B009A82821FFF789FE68461421FFF744
:102A000085FE05A81021FFF781FE0A20099001200C
:102A10000D9010200E9001200F90022010900020A9
:102A200011905FF46010129009A8FFF78FF800284A
:102A300001D000F02DFA0F2000900220019000201C
:102A400002904FF4C0600390002004900221684679
:102A5000FFF75CFA002801D000F01AFA0220059076
:102A60004FF44040079005A800F0AAFF002801D0CD
:102A700000F00EFA13B000BD1FB568460021002219
:102A8000002380E80E00DFF8C843DFF8C8032060A9
:102A90004FF48070A0600120E060002060615FF46E
:102AA0006020E061002060600A202061200001F0C9
:102AB000ADF8002801D000F0EBF9002000900120D3
:102AC0000190002002906946200001F00DFB0028D3
:102AD00001D000F0DDF9012000900220019069464C
:102AE000200001F001FB002801D000F0D1F9022004
:102AF0000090032001906946200001F0F5FA0028BB
:102B000001D000F0C5F9032000900420019069462F
:102B1000200001F0E9FA002801D000F0B9F9042002
:102B20000090052001906946200001F0DDFA0028A0
:102B300001D000F0ADF90520009006200190694613
:102B4000200001F0D1FA002801D000F0A1F9062000
:102B50000090072001906946200001F0C5FA002886
:102B600001D000F095F907200090082001906946F7
:102B7000200001F0B9FA002801D000F089F90820FE
:102B80000090092001906946200001F0ADFA00286C
:102B900001D000F07DF9092000900A2001906946DB
:102BA000200001F0A1FA002801D000F071F91FBD4A
:102BB00080B5A948A94901604CF25031416000211B
:102BC00081602021C1604FF4804101610021416199
:102BD000002181610021C16100210162FDF786FAB7
:102BE000002801D000F054F901BD80B59C489D49F2
:102BF00001609D494160002181604021C1604FF426
:102C00008041016100214161002181610021C16198
:102C100000210162FDF76AFA002801D000F038F9BE
:102C200001BD10B58AB006A81021FFF76FFD8F48CF
:102C3000D0E90023CDE9002302A81021FFF766FDAB
:102C40008B4C5FF080402060072060600020A06017
:102C50004FF6FF70E060002020610020A06120009E
:102C600001F09EFB002801D000F012F94FF48050D3
:102C7000069006A9200001F0F1FC002801D000F028
:102C800007F9200001F0A8FB002801D000F000F9AE
:102C900000200090002001906946200001F07EFE97
:102CA000002801D000F0F4F80020029001200390E9
:102CB0000020049008200590042202A9200001F0C1
:102CC00062FC002801D000F0E3F80AB010BD10B596
:102CD0008AB006A81021FFF719FD6648D0E9002345
:102CE000CDE9002302A81021FFF710FD624C6348D4
:102CF0002060072060600020A0604FF6FF70E06059
:102D0000002020610020A061200001F049FB002884
:102D100001D000F0BDF84FF48050069006A92000C5
:102D200001F09CFC002801D000F0B2F8200001F076
:102D300053FB002801D000F0ABF8002000900020E9
:102D400001906946200001F029FE002801D000F022
:102D50009FF80020029001200390002004900020A2
:102D60000590002202A9200001F00DFC002801D0EE
:102D700000F08EF8042202A9200001F004FC0028D3
:102D800001D000F085F80AB010BD80B52F483C494D
:102D900001605FF4E1314160002181600021C16088
:102DA000002101610C214161002181610021C1618B
:102DB00000F02CF9002801D000F06AF801BD81B0C4
:102DC0003048016851F001010160006810F0010015
:102DD0000090009801B0704718B585B06846102182
:102DE000FFF794FC2848016851F004010160016874
:102DF00011F0040104910499016851F00801016087
:102E0000006810F0080004900498204C00224FF451
:102E1000C0412000FFF791FD4FF4C0400090012019
:102E20000190012002900220039069462000FFF7E4
:102E300071FC4FF40070009000200190012002907E
:102E400069462000FFF766FC06B010BD400C00206C
:102E5000800C002000240140E408002000540040C1
:102E60003809002000580040A08601008065000855
:102E7000C00B002088650008000C00200004004002
:102E8000003801401410024018100240000C0140AC
:102E90007047000010B50400204800686421B0FBB2
:102EA000F1F0FFF71CFC002801D001200CE0102CF1
:102EB00009D2002221005FF0FF30FFF7F4FB184831
:102EC0000460002000E0012010BD10B504002000C7
:102ED000C0B2002805D14FF400511248FFF73AFD67
:102EE00004E04FF480410F48FFF734FD10BD10B5EA
:102EF0000D4C14220D49200000F0BBFF002801D02A
:102F0000FFF7C6FF200001F077FD002801D0FFF792
:102F1000BFFF200000F01CFF10BD000008000020D3
:102F200004000020000C0140800C00208C090020CF
:102F3000704710B50400FFF7FBFF10BD10B504008B
:102F4000FFF7F6FF10BD10B50400FFF7A1FF10BD9D
:102F5000103A07D330B4B1E83810103AA0E838106E
:102F6000F9D230BC530724BFB1E80810A0E808101C
:102F700044BF51F8043B40F8043BD20724BF31F86A
:102F8000022B20F8022B44BF0B7803707047121FEE
:102F900017D35B0009D151F8043B20F8023B1B0C0E
:102FA000121F20F8023BF6D20BE051F8043B00F868
:102FB000013B1B0A20F8023B1B0C121F00F8013BCF
:102FC000F3D238BF121D521E24BF11F8013B00F886
:102FD000013BF8D87047000000B500BF13009646CB
:102FE0009446103928BFA0E80C50FAD85FEA417C1B
:102FF00028BF0CC048BF40F8042BC90728BF20F8E1
:10300000022B48BF00F8012B00BD000010B50400E2
:10301000002C01D1012033E0A0690028FFD194F8F1
:103020003900002805D1002084F838002000FEF780
:1030300026FD242084F839002068C06830F4005050
:103040002168C860200000F05DFA2068006930F453
:103050009040216808612068406930F02A002168AA
:1030600048612068C06850F400502168C8600020A2
:10307000E063202084F83900202084F83A00002002
:1030800010BD2DE9FC4705000C0016001F005FF085
:10309000000A95F83900202860D1002C03D03000B8
:1030A00080B2002801D1012059E095F938000128AB
:1030B00001D1022053E0012085F838000020E863A8
:1030C000212085F83900FFF76FF88146AE84EE8441
:1030D000E88C00282FD0E88C401EE884A868B0F562
:1030E000805F18D100974B4600228021280000F015
:1030F00016F9002801D0032031E0A046B8F80000FE
:10310000C005C00D296848602869002801D1A41CA9
:10311000DEE7641CDCE700974B4600228021280094
:1031200000F0FDF8002801D0032018E0207829687D
:103130004860641CCCE700974B46002240212800E1
:1031400000F0EDF8002801D0032008E0202085F8E9
:103150003900002085F83800002000E00220BDE89A
:10316000F68710B4030093F83A0020282FD10029E5
:1031700003D0100080B2002801D1012028E093F98B
:103180003800012801D1022022E0012083F8380014
:1031900099629A85DA850020D863222083F83A0064
:1031A000002083F838001868C06850F480701C68EC
:1031B000E0601868406950F001001C6860611868A0
:1031C000C06850F020001C68E060002000E0022091
:1031D00010BC70472DE9F843060030680768306876
:1031E000D0F80C803068D0F814900020002517F03B
:1031F0000F04002C08D1B80606D55FEA886003D515
:10320000300000F028F988E0002C74D05FEAC97023
:1032100002D418F4907F6ED017F00100C0B20028DD
:1032200006D05FEAC85003D5F06B50F00100F063A0
:10323000780708D519F00100C0B2002803D0F06B60
:1032400050F00200F063B80708D519F00100C0B2D1
:10325000002803D0F06B50F00400F063380708D565
:1032600019F00100C0B2002803D0F06B50F0080044
:10327000F063F06B00283DD0B80605D55FEA8860A2
:1032800002D5300000F0E7F830684069800910F09E
:1032900001000500F06B000701D4002D25D030009F
:1032A00000F074F83068406940061AD5306840690B
:1032B00030F0400031684861706B00280DD00FF28B
:1032C000F100716B4863706BFFF741F8002811D073
:1032D000706B716B496B88470CE0300001F038FC73
:1032E00008E0300001F034FC04E0300001F030FC74
:1032F0000020F06311E0380606D55FEA086003D5C8
:10330000300000F061F808E0780606D55FEA486012
:1033100003D5300000F08FF8FFE7BDE8F1832DE919
:10332000F04105000E0090461F00069C28680068CA
:103330003040B04201D1012000E00020414649B2B6
:10334000884220D114F1010FF0D0002C04D0FEF7F8
:103350002BFFC01B8442E9D22868C06830F4D070CB
:103360002968C860286840694008400029684861A9
:10337000202085F83900202085F83A00002085F8C3
:103380003800032000E00020BDE8F0810168C96832
:1033900031F490710268D1600168496949084900B7
:1033A00002685161202180F83A1070470000000047
:1033B00038B50400656A0020E8850020E88428000C
:1033C00001F0C6FB31BD0000010091F83900212851
:1033D0002FD18868B0F5805F11D1086A020010888B
:1033E000C005C00D0B6858600869002803D1086A41
:1033F000801C086209E0086A401C086205E0086A4F
:10340000431C0B6200780B685860C88C401EC8844F
:1034100080B200280BD10868C06830F080000B68CB
:10342000D8600868C06850F040000B68D860002081
:1034300000E00220704710B504002068C06830F03A
:1034400040002168C860202084F83900200001F085
:103450005FFB002010BD38B5040094F83A00222824
:103460004ED1A068B0F5805F16D1A06A0500206932
:10347000002808D120684068C005C00D2880A06AD7
:10348000801CA0621AE02068406800F0FF002880DD
:10349000A06A401CA06211E02069002806D1A06A41
:1034A000411CA16221684968017007E0A06A411CC3
:1034B000A1622168496811F07F010170E08D401E12
:1034C000E08580B2002819D12068C06830F0200063
:1034D0002168C8602068C06830F480702168C860C6
:1034E000206840694008400021684861202084F835
:1034F0003A00200001F011FB002002E0002000E073
:10350000022032BD2DE9F843050000242868016936
:1035100031F44051E868014328680161A9682869CD
:103520000143686901430C432868C168564801405B
:1035300021432868C1602868416931F44071A86955
:103540000143286841612868504988424DD1FEF7FF
:10355000EBFD0600FEF7E8FD0700FEF7E5FD8046FF
:10356000FEF7E2FD8146FEF7DFFD64211922564396
:103570006B689B00B6FBF3F36426B3FBF6F357438B
:103580006E68B600B7FBF6F602FB08F86F68BF007E
:10359000B8FBF7F75FF0640CB7FBFCF701FB1766AD
:1035A000360132366427B6FBF7F616F0F00616EB56
:1035B000031602FB09F96B689B00B9FBF3F302FBEE
:1035C00000F268688000B2FBF0F06422B0FBF2F019
:1035D00001FB1031080132306421B0FBF1F010F032
:1035E0000F008619286886604CE0FEF792FD060001
:1035F000FEF78FFD0700FEF78CFD8046FEF789FD84
:103600008146FEF786FD6421192256436B689B00B4
:10361000B6FBF3F36426B3FBF6F357436E68B600CC
:10362000B7FBF6F602FB08F86F68BF00B8FBF7F7C8
:103630005FF0640CB7FBFCF701FB1766360132360E
:103640006427B6FBF7F616F0F00616EB031602FB3E
:1036500009F96B689B00B9FBF3F302FB00F26868A1
:103660008000B2FBF0F06422B0FBF2F001FB1031FD
:10367000080132306421B0FBF1F010F00F00861920
:1036800028688660BDE8F183F3E9FFFF0038014058
:1036900080B50748016851F0100101600320FEF772
:1036A000FCFF0F20FFF7F6FBFEF718F8002002BD25
:1036B0000020024080B502215A48006800F006F957
:1036C00001BD80B58AB005A857491422FFF740FC18
:1036D000002105A800F0D5F8524908606846534912
:1036E0001422FFF735FC0021684600F0CAF8504963
:1036F00008600BB000BD78B587B0040001F0F6F9A2
:10370000FFF7F5FB01F0F9F94FF47A72022104A8F2
:1037100000F00EF90498082820D1059802281DD140
:1037200068460500434E300001F02FFA0A2815D3F1
:1037300028884AF65521884209D101230A22694680
:10374000300001F05FFAA8780128EBD1EAE7012305
:1037500001226946300001F055FAE3E7364801F0EE
:10376000A9FAD1E72DE9FF4104004FF47A7000F087
:103770009FF80120FFF7A9FB304801F09BFA0A26C9
:103780000027E8463A003100404601F0A7FA0A2235
:1037900009216846FEF738FD002803D0284801F0CB
:1037A00089FA14E0274801F085FA00200500280076
:1037B000C0B20A2808DA68462900C9B2415C22482A
:1037C00001F078FA6D1CF2E715A001F073FA4FF4DE
:1037D0007A7000F06DF8042200216846FEF714FDAF
:1037E000002803D0164801F065FA14E0174801F0EC
:1037F00061FA002005002800C0B2042808DA6846F3
:103800002900C9B2415C104801F054FA6D1CF2E77E
:1038100003A001F04FFA4FF47A7000F049F8A8E7DE
:103820000A0000007C0D0020EC6400080065000820
:10383000800D0020140D0020A0650008A865000878
:1038400050640008C4640008B0650008D86400082B
:10385000010000200A0012B2842A03D00A0012B22A
:10386000D21C10187047EFF30580002801D001200A
:1038700000E00020C0B2704780B501F074FB00206A
:1038800002BD3EB504000D00B4F90800FFF7E0FFEB
:1038900002A9019100902B00226992B22168606810
:1038A00001F050FA012801D0002000E002983EBD4E
:1038B00038B505000A20B5FBF0F4002C01D020003B
:1038C00000E0012001F028FB002032BD3EB50400DD
:1038D0000D000020029000200190FFF7C4FF002897
:1038E00019D002A8009001AB01222900200001F0AC
:1038F00025FE012802D05FF0004018E00298002861
:1039000014D05FF08050DFF8B4100860BFF34F8F21
:10391000BFF36F8F0AE001AB01222900200001F004
:1039200085FD012802D05FF0004000E001983EBD17
:10393000FEB506000F00150000200190002415F1CF
:10394000010F03D15FF0FF30040009E0002D07D024
:103950000A20B5FBF0F00400002C01D10120040086
:10396000FFF781FF002802D08220009017E023009B
:1039700001AA3900002001F00BFD012807D0002C1E
:1039800002D1002000900AE04020009007E001985A
:10399000002802D58620009001E0082000906846AB
:1039A00090E80E0086E80E00F7BD80B501F0DCFC63
:1039B000012801D001F051FF01BD000004ED00E03D
:1039C0002DE9F8430500002600242878C0076CD5AF
:1039D0000027DFF80C82D8F80000C0000DD4D8F81A
:1039E000000050F08050C8F80000D8F8000010F037
:1039F00080500090009801200700DFF8E891D9F886
:103A00000000C00513D4D9F8000050F48070C9F844
:103A10000000FEF7C9FB0600D9F80000C00506D477
:103A2000FEF7C2FB801B6528F6D3032052E0DFF8C7
:103A3000B891D9F8000010F440700400002C22D096
:103A4000686810F4407084421DD0D9F8000030F44A
:103A50004070040065480121016000210160C9F83F
:103A60000040E0070FD5FEF79FFB0600D9F80000E5
:103A7000800708D4FEF798FB801B41F28931884209
:103A8000F4D3032026E0D9F8001031F440716868BF
:103A90000143C9F80010380040B2012805D1D8F818
:103AA000000030F08050C8F800002878800706D564
:103AB0004F490A6832F44042A86802430A602878F5
:103AC000C00606D54A490A6832F48002E868024313
:103AD0000A600020BDE8F2832DE9F04385B00400C0
:103AE00001A844491022FFF733FA43480088ADF893
:103AF00000000025002600275FF000085FF00009A5
:103B00002000012830D0022859D0102863D138482D
:103B10000168884639490968C90124D501A9C8F353
:103B20008342895C0F005FEAC8310ED5694602689E
:103B3000C2F34042895C0D005FEAC83109D53049C3
:103B4000B1FBF5F179430E0003E02E4901FB07F1CB
:103B50000E000068400201D5B14604E07000032168
:103B6000B0FBF1F0814636E01F480068804640F225
:103B7000023010EA0800B0F5817F03D14FF4004015
:103B800081461BE018F44070B0F5007F07D11E4855
:103B90000068800703D549F6404081460EE018F4DE
:103BA0004070B0F5407F07D114480068800303D50A
:103BB0004FF22440814601E0002081460BE0FEF7F1
:103BC000B3FA0B490968C1F38131491C4900B0FBC4
:103BD000F1F08146FFE7484605B0BDE8F0830000FC
:103BE0001C1002400070004020100240400442427D
:103BF0000410024024650008BE25000800100240A1
:103C000000127A0000093D00241002402DE9F04125
:103C100004005FF00008002500260027002C01D1D9
:103C2000012093E0A068002801D060690028A06A04
:103C3000002807D10020E062002084F82400200042
:103C4000FDF76AFD200000F043FBA16AC90676D4A7
:103C5000010049B2002972D1A16A31F4885151F0B2
:103C60000201A1626268E1690A43E16852EA410225
:103C70001643A168B1F5807F02D0A168012902D165
:103C80004FF4807100E000210D436169012911D1D9
:103C9000E168002906D1A169491E490351F4006178
:103CA0000D4307E0A16A51F02001A162E16A51F0E1
:103CB0000101E1622168496831F4694129432268C0
:103CC000516021688A68DFF8E4150A4032432168B0
:103CD0008A60A168B1F5807F02D0A168012902D174
:103CE0004FF4807100E00021B1F5807F03D121699C
:103CF000491E09050F002168C96A31F47001394372
:103D00002268D16221688A68DFF8A4150A40B242AD
:103D100008D10021E162A16A31F0020151F00101F4
:103D2000A16212E0A16A31F0020151F01001A1621A
:103D3000E16A51F00101E1620121080005E0A16A98
:103D400051F01001A1620121080040B2BDE8F081EC
:103D500038B50400002594F92400012801D102207F
:103D600086E0012084F82400200000F066FA0100BB
:103D700049B2002978D1A26ADFF838150A4052F416
:103D80008072A262DFF830252168914209D1DFF804
:103D90002C15096811F4702F01D1012102E00021D6
:103DA00000E0012100290ED0A16A31F48011A16246
:103DB00021684968490521D5A16A31F4005151F4BF
:103DC0008051A1621AE0A16A51F48011A1622168B8
:103DD000DFF8EC34994202D02168914205D1DFF836
:103DE000DC14096811F4806100E00021002905D08D
:103DF000A16A31F4005151F48051A162A16AC90451
:103E000004D5E16A31F00601E16201E00021E162DE
:103E1000002184F824107FF00201236819602168D2
:103E2000896811F46021B1F5602F16D121689142A3
:103E300009D1DFF88814096811F4702F01D101212C
:103E400002E0002100E00121002906D021688968F4
:103E500051F4A0012268916009E02168896851F459
:103E600080112268916002E0002184F8241040B2A1
:103E700032BD2DE9F84304000D0016005FF0000983
:103E8000DFF83C742068B84204D02068DFF82814BA
:103E9000884205D1DFF82404006810F4702000E0A7
:103EA0000020002840F0978094F92400012801D1D7
:103EB000022094E0012084F82400200000F0BDF9E5
:103EC0008046404640B2002840F08180A16ADFF879
:103ED000F803014051F48071A162DFF8DC1320681F
:103EE000884209D1DFF8D403006810F4702F01D1A3
:103EF000012002E0002000E0012000280ED0A06A8E
:103F000030F48010A0622068406840051FD5A06A88
:103F100030F4005050F48050A06218E0A06A50F4D1
:103F20008010A0622068B84202D02068884205D183
:103F3000DFF88803006810F4806000E000200028AB
:103F400005D0A06A30F4005050F48050A062A06AFE
:103F5000C00404D5E06A30F00600E06201E0002011
:103F6000E062002084F824000FF2B130216A8862F8
:103F70000FF2FD30216AC8620FF20540216A086322
:103F80007FF00200216808602068806850F480702B
:103F90002168886033002A00206810F14C01206AF3
:103FA000FEF789F92068806810F46020B0F5602F72
:103FB00006D12068806850F4A000216888600CE079
:103FC0002068806850F480102168886005E0002037
:103FD00084F8240001E05FF00108404640B2BDE8EB
:103FE000F28310B504002068406880062CD5206854
:103FF0000068800728D5A06AC00603D4A06A50F4E0
:104000000070A0622068806810F46020B0F5602F16
:1040100013D1E068002810D12068406830F02000FB
:1040200021684860A06A30F48070A062A06AC00471
:1040300003D4A06A50F00100A0622000FEF779FFCF
:104040007FF012002168086020684068000637D5BC
:1040500020680068400733D5A06AC00603D4A06A70
:1040600050F40050A0622068806810F4E040B0F581
:10407000E04F0DD02068406840051AD42068806861
:1040800010F46020B0F5602F13D1E068002810D143
:104090002068406830F0800021684860A06A30F4F1
:1040A0008050A062A06AC00503D4A06A50F001004D
:1040B000A062200000F018FD7FF00C00216808606D
:1040C0002068406840060ED520680068C0070AD501
:1040D000A06A50F48030A062200001F01DFC7FF047
:1040E00001002168086010BD78B4020000230020A0
:1040F000009092F92400012801D102209BE00120C8
:1041000082F824004868072812D21068446B1F25E3
:104110004868461E05204643B540AC430D684868D4
:10412000461E05204643B5402C431068446329E0F1
:1041300048680D2812D21068046B1F254868C61FF6
:1041400005204643B540AC430D684868C61F0520AE
:104150004643B5402C431068046313E01068C46AFA
:104160001F254868B0F10D0605204643B540AC4315
:104170000D684868B0F10D0605204643B5402C4354
:104180001068C46208680A2814D31068C468072538
:104190000868B0F10A0603204643B540AC438D6879
:1041A0000868B0F10A0603204643B5402C43106866
:1041B000C4600FE01068046907250E6803204643B9
:1041C000B540AC438D680E6803204643B5402C4390
:1041D000106804610868102802D00868112825D1E9
:1041E0001068374CA0421BD11068806800021DD4B3
:1041F0001068806850F400001468A06008681028F7
:1042000014D130480068314CB0FBF4F40A20444328
:1042100000940098002809D00098401E0090F8E70C
:10422000906A50F02000906201200300002082F884
:104230002400180040B272BC704738B50400002555
:104240000020009020688068C0072BD42068806818
:1042500050F00100216888601A4800681B49B0FBD3
:10426000F1F000900098002803D00098401E0090C4
:10427000F8E7FDF799FF050020688068C00711D4B2
:10428000FDF792FF401B0328F6D3A06A50F0100000
:10429000A062E06A50F00100E062002084F824008F
:1042A000012000E0002032BD00000000FDF7E1FF2A
:1042B000FE0E1FFFFEFDFFFF002801400424014009
:1042C0000024014008000020FEF1FFFF40420F00E3
:1042D00038B50400002520688068C0071BD5206819
:1042E00080684008400021688860FDF75DFF050098
:1042F00020688068C0070ED5FDF756FF401B0328D5
:10430000F6D3A06A50F01000A062E06A50F00100FD
:10431000E062012000E0002032BD000038B504005A
:10432000656AA86A10F0500F1CD1A86A50F400709A
:10433000A8622868806810F46020B0F5602F0DD165
:10434000E86800280AD1A86A30F48070A862A86AD8
:10435000C00403D4A86A50F00100A8622800FEF748
:10436000E8FD03E02000296A096B884731BD0000A1
:1043700038B50400656A2800FEF7E0FD31BD000095
:1043800038B50400656AA86A50F04000A862E86A7F
:1043900050F00400E8622800FEF7D5FD31BD0000B2
:1043A00010B50400002C01D1012014E094F93D0067
:1043B000002805D1002084F83C002000FDF7EFFA2A
:1043C000022084F83D00211D206800F0D5F901206D
:1043D00084F83D00002010BD10B50400002C01D170
:1043E000012014E094F93D00002805D1002084F854
:1043F0003C00200001F091FA022084F83D00211DCC
:10440000206800F0B9F9012084F83D00002010BDBB
:1044100010B504002068006980071AD52068C068BC
:10442000800716D57FF002002168086101202077FF
:104430002068806910F0030F03D0200001F06EFAAD
:1044400005E0200001F06BFA200001F069FA00207D
:1044500020772068006940071AD52068C0684007A7
:1044600016D57FF0040021680861022020772068BB
:10447000806910F4407F03D0200001F04FFA05E07E
:10448000200001F04CFA200001F04AFA00202077C9
:104490002068006900071AD52068C068000716D593
:1044A0007FF0080021680861042020772068C06937
:1044B00010F0030F03D0200001F030FA05E02000D7
:1044C00001F02DFA200001F02BFA0020207720685F
:1044D0000069C0061AD52068C068C00616D57FF0EE
:1044E000100021680861082020772068C06910F456
:1044F000407F03D0200001F011FA05E0200001F018
:104500000EFA200001F00CFA0020207720680069E4
:10451000C0070AD52068C068C00706D57FF0010033
:1045200021680861200001F0FCF92068006900069C
:104530000AD52068C068000606D57FF08000216893
:104540000861200001F0EEF92068006940060AD5F4
:104550002068C068400606D57FF0400021680861E9
:10456000200001F0E0F92068006980060AD5206883
:10457000C068800606D57FF0200021680861200011
:1045800001F0D2F910BD70B505000E00140095F9C8
:104590003C00012801D102205FE0012085F83C00A9
:1045A000022085F83D00002C12D1F3687268316852
:1045B000286800F014F92868806930F00C00296838
:1045C000886128688169B0680143286881613DE09D
:1045D000042C13D1F36872683168286800F04CF934
:1045E0002868806930F4406029688861286880699B
:1045F000B16850EA01202968886127E0082C12D1AF
:10460000F36872683168286800F06CF92868C0693E
:1046100030F00C002968C8612868C169B06801439E
:104620002868C16112E0F36872683168286800F098
:1046300079F92868C06930F440602968C861286841
:10464000C069B16850EA01202968C861012085F875
:104650003D00002085F83C00002070BD70B50400CE
:104660000D00002194F93C00012801D1022082E0D4
:10467000012084F83C00022084F83D002068866810
:1046800036F0770636F47F46206886602868002872
:1046900056D0102859D020285CD030285FD0402830
:1046A00044D050282ED0602836D070280DD0B0F5D8
:1046B000805F03D0B0F5005F17D055E020688068B8
:1046C000C008C000216888604EE0EB686A68A9688D
:1046D000206800F055F92068806830F0770050F0CD
:1046E00077000600206886603EE0EB686A68A9688B
:1046F000206800F045F92068806850F48040216807
:10470000886031E0EA686968206800F0A1F850210B
:10471000206800F028F927E0EA686968206800F05E
:10472000CCF86021206800F01EF91DE0EA68696895
:10473000206800F08DF84021206800F014F913E0A3
:104740000021206800F00FF90EE01021206800F031
:104750000AF909E02021206800F005F904E0302181
:10476000206800F000F9FFE7012084F83D000020F8
:1047700084F83C00002070BD10B400220368314C66
:10478000A04208D0B0F1804F05D02F4A904202D00D
:104790002E4A904203D133F070034A681343A0427B
:1047A00008D0B0F1804F05D0274A904202D0274A66
:1047B000904203D133F44073CA68134333F080034B
:1047C0004A69134303608A68C2620A688262A0422F
:1047D00001D10A6902630122426110BC7047F0B442
:1047E00000240026056A6D086D0005628569076A68
:1047F000DFF850C0604508D0B0F1804F05D0124CB2
:10480000A04202D0114CA04201D1012400E00024BA
:10481000E4B2002C03D0AD08AD00154301E055F023
:10482000010535F0F0051C0114F0F004254337F0C4
:104830000A0711F00A04274385610762F0BC70473C
:1048400000000000002C014000040040000800406F
:1048500070B400230025066A046A640864000462D8
:10486000846934F0F00454EA021436F00A060E4368
:104870008461066270BC7047F0B400240026056AAB
:1048800035F0100505628569076A35F4407555EA0B
:10489000022535F470455FEA033C1CF4704C5CEA79
:1048A000050537F0A0075FEA011C1CF0A00C5CEACC
:1048B000070785610762F0BC704770B400230025CC
:1048C000046A34F0100404628469066A34F47044A3
:1048D00054EA023436F0A00656EA011684610662F4
:1048E00070BC7047F0B400240026056A35F480756A
:1048F0000562C569076AAD08AD00154335F0F005DE
:104900005FEA031C1CF0F00C5CEA050537F4007745
:104910005FEA012C1CF4007C5CEA0707C5610762B2
:10492000F0BC7047F0B400240026056A35F48055C9
:104930000562C569076A35F4407555EA022535F404
:1049400070455FEA033C1CF4704C5CEA050537F4E3
:1049500000575FEA013C1CF4005C5CEA0707C56194
:104960000762F0BC704710B40022836833F0700314
:104970000C00A4B254F007042343836010BC7047BA
:1049800070B40024856835F47F4552EA010656EA82
:1049900003263543856070BC70470000020092F921
:1049A0003C00012801D1022024E0012082F83C00D3
:1049B000022082F83D001068406830F070001368F3
:1049C00058601068436808680343106843601068C3
:1049D000806830F0800013689860106883684868C9
:1049E000034310688360012082F83D00002082F8B4
:1049F0003C00002070470000F8B5050000270020AB
:104A0000009095F92400012801D1022069E00120DD
:104A100085F824002800FFF75BFC0600300040B258
:104A2000002859D1A86A30F4885050F00200A862DA
:104A30000220FFF751F8DFF8AC100968B1FBF0F085
:104A4000400000900098002803D00098401E00907D
:104A5000F8E72800FFF7F1FB2868806850F00800AD
:104A600029688860FDF7A0FB0700286880680007B8
:104A70000FD5FDF799FBC01B0B28F6D3A86A30F0C1
:104A8000020050F01000A862002085F824000120E8
:104A900027E02868806850F0040029688860FDF7E6
:104AA00083FB04002868806840070FD5FDF77CFB76
:104AB000001B0B28F6D3A86A30F0020050F010005B
:104AC000A862002085F8240001200AE0A86A30F0DE
:104AD000020050F00100A862002085F82400300098
:104AE00040B2F2BD080000207047000080B54022AF
:104AF0001349144800F031F801BD80B50122124974
:104B00001248FEF72EFB002801D0FEF7C1F901BDC7
:104B100010B50400FFF7F1FF10BD38B50400094DD2
:104B200001220949280000F044F8280000F02DF87F
:104B30000A2801D3FEF7BEFDFFF7DFFF31BD0000FD
:104B4000800B0020140D0020880D0020400C002058
:104B500010B50400FEF79CF910BD2DE9F8430400E0
:104B60000D001600268125600020A0800020E08036
:104B70003700BFB24FF0FF08D4F80090424639002A
:104B8000484600F0ABF8BDE8F18302000023B2F91B
:104B90000600B2F90410884203DBD1889088081A15
:104BA00005E0B2F908109088081AD188081800B2F8
:104BB0007047F8B504000D00160000272000FFF72D
:104BC000E4FF310009B2884201DA002019E0002038
:104BD0000100320009B212B2914211DA010009B2A9
:104BE000695C2268B4F90630D154B4F90610491C46
:104BF000228991FBF2F302FB1311E180401CE7E7ED
:104C000000B2F2BD2DE9F84304000D0016001F00AC
:104C10005FF000085FF000092000FFF7B6FF010019
:104C200030000A0000B212B2904200DA31003800BF
:104C300040B200281ED0002002000B0012B21BB2AE
:104C40009A4234DA2268B4F90430D25C03001BB211
:104C5000EA54FF222368B4F904C003F80C20B4F925
:104C60000420521C238992FBF3FC03FB1C22A2802C
:104C7000401CE1E7B4F904008146002002000B006B
:104C800012B21BB29A4212DA22684B461BB2D25CB5
:104C900003001BB2EA540FFA89F919F101094A46D7
:104CA000238992FBF3F903FB1929401CE6E700B2C4
:104CB000BDE8F2830EB4C0B5024603A800210190FE
:104CC000009101AB0121044878440C3000F02EFE25
:104CD00006BC5DF810FB00BFCB17000062F30F228B
:104CE00062F31F42401810F0030308D0C91A1FD303
:104CF000DB0748BF00F8012D28BF20F8022D130064
:104D000030B414461546103928BF20E93C00FAD8C3
:104D1000490728BF20E90C0048BF40F8042D89004E
:104D200028BF20F8022D48BF00F8012D30BC704785
:104D3000C91818BF00F8012DCB0728BF00F8012DB6
:104D4000704700002DE9F84F84B006000F00904630
:104D50009946DDF838A0DDF83CB0404680B28000CE
:104D600001F04CF80500002D0BD0542001F046F85E
:104D70000400002C01D0256304E0280001F0CEF8E7
:104D800000E00024002C12D0002003900294CDF803
:104D900004B0CDF800A04B46424692B23900300034
:104DA00000F00AF8200000F06AF8012001E05FF04E
:104DB000FF3005B0BDE8F08F2DE9F84F05000E007B
:104DC00017009846DDF828900B9CDDF830A0DAF843
:104DD000300000EB8700001FC008C0000090009862
:104DE00010F0070F07D0502080F31188BFF34F8FCA
:104DF000BFF36F8FFEE75FF0000BBBF1100F0CD21B
:104E000016F80B000AEB0B0181F8340016F90B00C1
:104E1000002802D01BF1010BEFE700208AF84300C5
:104E2000B9F1070F01D306208146CAF82C90CAF8C1
:104E300044900020CAF848001AF1040001F027F954
:104E40001AF1180001F023F9CAF810A0D9F10700EF
:104E5000CAF81800CAF824A00020CAF84C000020A4
:104E60008AF8500042462900009800F067FCCAF812
:104E70000000002C01D0C4F800A0BDE8F18F38B5C7
:104E8000040000F0BAFCDFF8BC130868401C08609E
:104E9000DFF8B4532868002806D12C600868012880
:104EA0000DD100F0EBF90AE0DFF8C4030068002838
:104EB00005D1E06A2968C96A884200D32C60DFF80E
:104EC000B4030168491C0160DFF8AC130A680123D0
:104ED000E06A83401A430A60211DDFF8F023E36A89
:104EE0001420434302EB030001F0D4F800F09FFCD0
:104EF000DFF87C03006800280DD02868C06AE16AEA
:104F0000884208D25FF08050DFF87C140860BFF35D
:104F10004F8FBFF36F8F31BD38B505000024002DD2
:104F200015D0DFF840040068002807D0502080F337
:104F30001188BFF34F8FBFF36F8FFEE700F047F884
:104F40000021280000F09AFB00F047F80400002C34
:104F500008D15FF08050DFF830140860BFF34F8F46
:104F6000BFF36F8F31BD1CB5DFF8C4050190002081
:104F7000009000234022DFF8BC150FF2D120FFF78C
:104F8000E1FE0400012C16D1502080F31188BFF3FC
:104F90004F8FBFF36F8F5FF0FF30DFF89C15086015
:104FA0000120DFF8CC1208600020DFF8C01608608E
:104FB00000F0E9FB0AE014F1010F07D1502080F363
:104FC0001188BFF34F8FBFF36F8FFEE713BDDFF87C
:104FD00094030168491C01607047F8B5002500265C
:104FE000DFF880432068002807D1502080F3118823
:104FF000BFF34F8FBFF36F8FFEE700F0FEFB20681B
:10500000401E20602068002857D1DFF83802006871
:10501000002852D0DFF814150868002827D0C86887
:10502000C068050015F1180001F05BF8281D01F0BB
:1050300058F8DFF844120A680123E86A83401A43EB
:105040000A60291DDFF88422EB6A1420434302EB37
:10505000030001F01FF8E86ADFF8EC110968C96A7B
:105060008842D7D30120DFF898160860D2E7002DD8
:1050700001D000F062F9DFF8F0753C68002C0CD02C
:1050800000F01FF8002803D00120DFF87416086034
:10509000641E002CF4D100203860DFF8640600683C
:1050A00000280AD0012006005FF08050DFF8D812F7
:1050B0000860BFF34F8FBFF36F8F00F0B8FB300075
:1050C000F2BD2DE9F0410027DFF8980200680028C2
:1050D00071D1DFF898050468641C0460002C1CD1B1
:1050E000DFF88C1508680068002807D0502080F38E
:1050F0001188BFF34F8FBFF36F8FFEE7D1F80080A9
:10510000DFF8700502680A60C0F80080DFF8680503
:105110000168491C016000F010F9DFF81C84D8F820
:10512000000084423AD3DFF8481508680068002878
:1051300004D15FF0FF30C8F800002FE00868C068B5
:10514000C068050068680600B44202D2C8F8006072
:1051500024E0281D00F0C5FFA86A002803D015F13F
:10516000180000F0BEFFDFF810110A680123E86A9A
:1051700083401A430A60291DDFF85021EB6A14208E
:10518000434302EB030000F085FFE86A2E490968FB
:10519000C96A8842C7D301200700C4E7DFF82C1191
:1051A00029480068C26A142042438858022807D35D
:1051B0000120070004E0DFF8B0040168491C016029
:1051C000DFF83C050068002801D001200700380006
:1051D000BDE8F081DFF88C010068002804D00120D0
:1051E000DFF81C1508602BE00020DFF814150860BC
:1051F00021480068B0FA80F1D1F11F011422334B2D
:1052000002FB01F01858002807D1502080F31188C4
:10521000BFF34F8FBFF36F8FFEE702FB01F203EB8B
:105220000200426852684260426810F108039A42E4
:1052300002D14268526842604068C068024A106009
:1052400070470000500D0020400D002010B50400F4
:1052500000F03EF81D4800680228F9D35FF0805046
:10526000DFF8C4110860BFF34F8FBFF36F8FEFE714
:105270005C0D00206C0D0020580D002070B500243E
:10528000072C08D21148142101FB04F1084400F056
:10529000EFFE641CF4E7DFF87454280000F0E8FE29
:1052A000DFF86C64300000F0E3FEDFF8800200F00D
:1052B000DFFE1B4800F0DCFE344800F0D9FEDFF8CA
:1052C000B0030560DFF84C04066070BD580800208C
:1052D00070B5144D2868002821D0FFF778FE104ED5
:1052E0003068002801D1012400E00024FFF775FE9A
:1052F000002CEED100F081FAF068C668301D00F095
:10530000F0FEDFF814040168491E01602868401EA1
:10531000286000F08CFA300000F006F8D9E770BD84
:10532000EC0C00204C0D002010B50400206B00F0A8
:10533000F5FD200000F0F2FD10BDDFF83423106809
:105340000068002805D15FF0FF30DFF8EC21106025
:1053500007E01068C068C06801004868DFF8D8211D
:1053600010607047780D0020DFF8B0030068002857
:1053700001D1012007E0DFF8A8030068002801D16F
:10538000022000E00020704704ED00E0000D002046
:105390002DE9F84306000F0014001D0000F02DFA5F
:1053A000DFF86483D8F8000090F85000022817D086
:1053B000D8F80000C16CB143C1640120D8F80010D6
:1053C00081F85000002D0BD00121280000F056F983
:1053D0005FF0805014490860BFF34F8FBFF36F8FA9
:1053E00000F025FA00F009FA002C03D0D8F80000EC
:1053F000C06C2060D8F8000090F85000012802D15D
:105400005FF0000906E0D8F80000C16CB943C16440
:105410005FF001090020D8F8001081F8500000F07A
:1054200006FA4846BDE8F28304ED00E02DE9F047B6
:1054300004000E0017001D005FF00108002C07D1CA
:10544000502080F31188BFF34F8FBFF36F8FFEE7BB
:10545000A14600F0D2F9002D02D0D9F84C00286006
:1054600099F850A0022089F85000380040B2002876
:105470001FD002280AD003D3042810D00CD318E080
:10548000D9F84C003043C9F84C0012E0D9F84C0070
:10549000401CC9F84C000CE0C9F84C6009E05046CB
:1054A000C0B2022802D0C9F84C6001E0002080465A
:1054B000FFE75046C0B2012833D119F1040000F0D3
:1054C00010FEDFF864120A680123D9F82C0083402B
:1054D0001A430A6019F10401DFF84822D9F82C3088
:1054E0001420434302EB030000F0D4FDD9F8280058
:1054F000002807D0502080F31188BFF34F8FBFF3EF
:105500006F8FFEE780480068C06AD9F82C10884287
:1055100007D25FF0805085490860BFF34F8FBFF31B
:105520006F8F00F084F94046BDE8F087D80C00206A
:10553000740D002098650008700D00202DE9F84FCB
:1055400004000F0090461D000A9E5FF00109002C28
:1055500007D1502080F31188BFF34F8FBFF36F8FB7
:10556000FEE700F08FF9A246EFF3118B502181F393
:105570001188BFF34F8FBFF36F8F002D02D0DAF881
:105580004C0028609AF850008DF8000002208AF83C
:105590005000404640B200281FD002280AD003D352
:1055A000042810D00CD318E0DAF84C003843CAF8BD
:1055B0004C0012E0DAF84C00401CCAF84C000CE039
:1055C000CAF84C7009E09DF80000022802D0CAF821
:1055D0004C7001E000208146FFE79DF800000128A3
:1055E0003AD1DAF82800002806D081F31188BFF3F9
:1055F0004F8FBFF36F8FFEE749480068002817D12F
:105600001AF1040000F06DFD47490A680123DAF839
:105610002C0083401A430A601AF10401414ADAF867
:105620002C301420434302EB030000F033FD04E070
:105630001AF118010B4800F02DFD33480068C06ACC
:10564000DAF82C10884207D2002E02D001203060F8
:1056500002E001202A4908608BF311884846BDE822
:10566000F28F0000D80C0020600D0020540D0020A7
:10567000440D0020480D0020680D00202DE9F04168
:1056800005000C001F480768DFF87C80D8F8000090
:10569000001D00F026FD002808D1D8F8000022499E
:1056A0000A680123C06A83409A430A6015F1010F1A
:1056B00008D1002C06D0D8F80000011D1C4800F0CD
:1056C000E9FC1AE0E8190600D8F800004660BE427E
:1056D00007D2D8F80000011D0E48006800F0E6FC73
:1056E0000BE0D8F80000011D1248006800F0DEFC55
:1056F000114801688E4200D20660BDE8F0810000CA
:10570000640D0020540D0020400D0020B00C00203E
:10571000C40C0020480D0020500D00205C0D00201E
:10572000780D002058080020580D002004ED00E0FE
:10573000000D0020440D0020700D0020001F5FF0C0
:1057400080730360001F4B085B000360001F0FF2B3
:105750000D03036014380260203870475D4800680C
:1057600010F1010F07D0502080F31188BFF34F8F45
:10577000BFF36F8FFEE7502080F31188BFF34F8F88
:10578000BFF36F8FFEE7E0B5534801780191FF2129
:10579000017001788DF800109DF8001011F0500193
:1057A0004E4A11704E4907220A609DF800201206E9
:1057B00008D50A68521E0A609DF8002052008DF834
:1057C0000020F2E70A6812020A600A6812F4E06236
:1057D0000A60019901704348016851F47001016049
:1057E000016851F07041016000F084F800203949EF
:1057F000086000F0BEFC00200EBD502080F3118830
:10580000BFF34F8FBFF36F8F32490A68521C0A6093
:10581000096801290AD134490968090606D080F3CC
:105820001188BFF34F8FBFF36F8FFEE77047294991
:105830000868002807D1502080F31188BFF34F8FEC
:10584000BFF36F8FFEE70868401E086008680028F5
:1058500002D1002080F31188704780B5502080F37A
:105860001188BFF34F8FBFF36F8FFFF72AFC00281B
:1058700003D05FF080501C490860002080F311883D
:1058800001BD0000EFF30580102811D3174A1268FC
:10589000125C11000A00114B1B78D2B29A4207D257
:1058A000502282F31188BFF34F8FBFF36F8FFEE753
:1058B0000B4A12680E4B1B6813F4E0639A4207D23E
:1058C000502282F31188BFF34F8FBFF36F8FFEE733
:1058D000704700000000002000E400E0890D002077
:1058E000380D002020ED00E004ED00E0BC6500086C
:1058F0000CED00E0054800686421B0FBF1F0401EAB
:105900000349086007200349086070470800002029
:1059100014E000E010E000E0704770477047704707
:105920007047704770477047704700002DE9F84F87
:1059300092B01546029100211C9ADFF804828DF87E
:105940002F2081469A4608910FF28C464FF0FF3780
:105950000CE025280FD015F8011B0298C847002835
:10596000029000F0D7800898401C08902878002802
:10597000EFD10898E6E00020002100220590069172
:10598000079201E041F0010115F8010F2028F9D03C
:1059900023280CD02B2804D02D2805D0302809D05E
:1059A000BAE041F00201EFE741F00401ECE741F019
:1059B0000801E9E741F01001E6E70A9209E00A98D8
:1059C000404505DA00EB800402EB4402303A0A92CB
:1059D0006D1C2A78A2F130000A28F0D328782E28EE
:1059E00018BF099725D115F8010F2A280AD1DAF82E
:1059F0000000CAF800006D1C50F8042BCAF8000023
:105A0000099216E02D280CBF6D1C0020002209927F
:105A10000AE040B9099A424505DA02EB820403EB39
:105A20004403303B09936D1C2B78A3F130020A2A02
:105A3000EFD3ADF82C103046297800F0ABFB08B15D
:105A400015F8010B8DF82E009DF82E00682804BF74
:105A50002978682903D162208DF82E006D1C0CA8CE
:105A60000490524615F8013B01A9484600F098F809
:105A700000284FD10A980599079A069C401A801A67
:105A8000041B9DF82C0041070FD42020002C8DF81A
:105A900000000ADDA34601236A4601A9484600F03A
:105AA00084F9B8BBBBF1010BF5D1059B0CAA01A988
:105AB000484600F07AF968BBDDF81CB03020BBF135
:105AC000000F8DF8000009DD01236A4601A9484650
:105AD00000F06BF9F0B9BBF1010BF5D1069B039A0D
